:020000040800F2
:10000000180800204D0200085D1C00089D1900081A
:10001000591C00087F0400086D2200080000000041
:10002000000000000000000000000000631C000849
:100030005106000800000000611C0008651C000853
:1000400067020008670200086702000867020008EC
:1000500067020008670200086702000867020008DC
:1000600067020008670200086702000867020008CC
:1000700067020008670200086702000867020008BC
:1000800067020008670200086702000867020008AC
:10009000670200086702000867020008670200089C
:1000A000670200086702000867020008670200088C
:1000B000670200086702000867020008670200087C
:1000C000670200086702000867020008670200086C
:1000D000670200083D2200084D2200085D2200084A
:1000E000670200086702000867020008670200084C
:1000F000670200086702000867020008670200083C
:10010000670200086702000867020008670200082B
:10011000670200086702000867020008670200081B
:10012000670200086702000867020008670200080B
:1001300067020008670200086702000867020008FB
:1001400067020008670200086702000867020008EB
:1001500067020008670200086702000867020008DB
:1001600067020008670200086702000867020008CB
:10017000670200086702000867020008000000002C
:1001800067020008670200086702000867020008AB
:10019000670200086702000867020008670200089B
:1001A00067020008670200086702000800F002F812
:1001B00000F03CF80AA090E8000C82448344AAF1C5
:1001C0000107DA4501D100F031F8AFF2090EBAE8C3
:1001D0000F0013F0010F18BFFB1A43F0010318477B
:1001E0005C2A00007C2A0000103A24BF78C878C13D
:1001F000FAD8520724BF30C830C144BF04680C602D
:10020000704700000023002400250026103A28BF74
:1002100078C1FBD8520728BF30C148BF0B60704778
:100220001FB502F0F9FC1FBD10B510BD00F0F1F8CC
:100230001146FFF7F5FF02F037F800F00FF903B4AD
:10024000FFF7F2FF03BC00F013F9000009488047F4
:1002500009480047FEE7FEE7FEE7FEE7FEE7FEE7A8
:10026000FEE7FEE7FEE7FEE704480549054A064BC0
:1002700070470000291D0008AD0100081802002089
:1002800018080020180400201804002053EA020C6B
:1002900000F069802DE9F04B4FF00006002B1FBFE6
:1002A000B3FA83F503FA05F424FA05F65E4012BFAB
:1002B0001643B2FA82F502FA05F4C5F120051EBF15
:1002C00022FA05FC44EA0C04203556EA044C4FEAB5
:1002D000144418BF641C4FF000084FF0000990420E
:1002E00071EB030C39D3002919BFB1FA81F701FA78
:1002F00007F6B0FA80F700FA07F6C7F120071EBF2D
:1003000020FA07FC46EA0C062037B6FBF4FCA7EB04
:100310000507103F07F01F0BCBF120060CFA0BFB73
:100320002CFA06F644BFB3460026202FA4BF5E4633
:100330004FF0000B5BEA060C08BF4FF0010B19EB06
:100340000B09ABFB027C48EB0608C01B06FB02CC8A
:100350000BFB03CC71EB0C01C1E70B460246414697
:100360004846BDE8F08B13B54FF000004FF0000198
:10037000AFF30080BDE81C4070474FF00002042935
:10038000C0F0128010F0030C00F01B80CCF1040CC4
:10039000BCF1020F18BF00F8012BA8BF20F8022BF8
:1003A000A1EB0C0100F00DB85FEAC17C24BF00F89E
:1003B000012B00F8012B48BF00F8012B70474FF0CC
:1003C000000200B5134694469646203922BFA0E8A5
:1003D0000C50A0E80C50B1F12001BFF4F7AF0907B1
:1003E00028BFA0E80C5048BF0CC05DF804EB8900A2
:1003F00028BF40F8042B08BF704748BF20F8022BE5
:1004000011F0804F18BF00F8012B704770477047FC
:100410007047754600F028F8AE4605006946534619
:1004200020F00700854618B020B5FFF71DFFBDE896
:1004300020404FF000064FF000074FF000084FF04B
:10044000000B21F00701AC46ACE8C009ACE8C009DC
:10045000ACE8C009ACE8C0098D4670470446AFF36C
:1004600000802046FFF7EBFE00487047B8010020EF
:1004700001491820ABBEFEE726000200704700BF0E
:10048000FEE7000010B56D48008800F40040002829
:1004900026D16A48008800F4804000287ED0674852
:1004A000008800F4005000285BD06448008800F405
:1004B000805060B362480078002812DD61480078FF
:1004C0005E490988C1F30B015F4A50545B480088BC
:1004D000401C5A4908805A480078401E5849087004
:1004E000ABE058480078C12806D15448008840F451
:1004F000004052490880A0E050480088C0F30B013A
:100500005148FFF73AFF00204C49088095E04D48DC
:100510000078C8280ADD49480088C0F30B014A4822
:10052000FFF72BFF00204549088086E0454800780A
:1005300046490870084600784149087041480078EB
:100540003E490988C1F30B013F4A50543B4800889B
:10055000401C3A4908800846008840F480500880D2
:100560006BE038480078012806D0022819D003280B
:100570002AD004284ED13AE03048008840F4005098
:100580002E4908802F4800780988C1F30B012E4AB4
:1005900050542A480088401C284900E03FE0088069
:1005A0003CE02648008840F4005024490880254853
:1005B00000780988C1F30B01234A50541F48008872
:1005C000401C1E49088029E01C48008840F4005067
:1005D0001A4908801B4800780988C1F30B011A4AA0
:1005E000505416480088401C1449088016E01348EF
:1005F000008840F4005011490880124800780988AA
:10060000C1F30B01104A50540C480088401C0B49A0
:10061000088003E000200949088000BF0DE0094878
:100620000078C02806D10548008840F4804003497E
:10063000088002E000200149088010BD0000002071
:1006400003000020120000202400002002000020EF
:10065000704772B600BFFEE770B505460E461446F9
:10066000012C04D13146284600F07AF905E024B97E
:1006700000223146284600F073F970BD70B504467B
:10068000A56D00F073F9064694F83500022808D0ED
:100690008020606500BF002084F8340000BF012086
:1006A00070BD2068006820F016002168086020688E
:1006B000406920F0800021684861206C08B9A06C76
:1006C00028B12068006820F00800216808602068D0
:1006D000006820F001002168086010E000F046F991
:1006E000801B05280BD920206065032084F8350085
:1006F00000BF002084F8340000BF0320D0E720684A
:10070000006800F001000028E8D194F85C103F2058
:100710008840A860012084F8350000BF002084F8DC
:10072000340000BF00BFBBE7014691F83500022846
:1007300003D08020486501207047052081F83500EE
:100740000868006820F001000A6810600020F3E7E4
:10075000F8B502460B460025002400200021E0E009
:10076000012606FA01F51E6806EA0504AC4274D1BA
:100770001E7906F00306012E04D01E7906F003064A
:10078000022E13D190684F000326BE40B0434F00A5
:10079000DE68BE4030439060506801268E40B04312
:1007A0001E79C6F300168E40304350601E7906F065
:1007B0000306032E09D0D0684F000326BE40B04385
:1007C0004F009E68BE403043D0601E7906F003069D
:1007D000022E13D1CF0802F1200656F827004E074B
:1007E000F70E0F26BE40B0434F07FF0E1E69BE40F6
:1007F0003043CF0802F1200646F8270010684F006A
:100800000326BE40B0431E7906F003064F00BE40EB
:10081000304310605E6806F44036002E1DD000BFE5
:1008200000260096414E366846F480463F4F3E60B3
:100830003E46366806F48046009600BF00BF3C4E38
:100840008F0856F827008E07370F0F26BE40B0439B
:10085000384EB24202D100262EE061E0364EB2425E
:1008600001D1012628E0354EB24201D1022623E013
:10087000334EB24201D103261EE0324EB24201D1C4
:10088000042619E0304EB24201D1052614E02F4E65
:10089000B24201D106260FE02D4EB24201D1072609
:1008A0000AE02C4EB24201D1082605E02A4EB2429F
:1008B00001D1092600E00A268F073F0FBE403043D2
:1008C0001B4E8F0846F82700244E3068A0435E6810
:1008D00006F4801606B12043204E3060361D306885
:1008E000A0435E6806F4001606B120431B4E361D79
:1008F00030601A4E361F3068A0435E6806F400363A
:1009000006B12043154E361F3060361F3068A043B5
:100910005E6806F4803606B12043104E083E306013
:10092000491C1029FFF41CAFF8BD000044380240F8
:100930000838014000000240000402400008024064
:10094000000C024000100240001402400018024057
:10095000001C02400020024000240240083C0140EC
:100960000AB1816101E00B048361704701480068AE
:10097000704700001400002003480068034909780C
:100980000844014908607047140000201C00002042
:1009900010B50D48006840F400700B490860084627
:1009A000006840F4806008600846006840F4807089
:1009B0000860032000F0A6F8032000F007F800F01C
:1009C0002BF8002010BD0000003C024070B504462A
:1009D0000E4800784FF47A71B1FBF0F00C490968C9
:1009E000B1FBF0F5284600F075FC08B1012070BDA0
:1009F000102C07D200222146501E00F045F8054871
:100A0000046001E00120F2E70020F0E71C00002074
:100A1000200000201800002008B500BF0020009032
:100A20001048006840F480400E490860084600689D
:100A300000F48040009000BF00BF00BF0020009085
:100A4000081F006840F08050091F086008460068D1
:100A500000F08050009000BF00BF052000F052F869
:100A600008BD00004438024001460846002809DB62
:100A700000F01F0301229A4043099B0003F1E02389
:100A8000C3F8002100BF70472DE9F05F80460D4696
:100A90001646002701F0ECFB074639462A46334646
:100AA00001F00700C0F1070ABAF1040F02D94FF0B4
:100AB000040A01E0C0F1070AD14600F1040ABAF1C4
:100AC000070F02D24FF0000A01E0A0F1030AD4465A
:100AD0004FF0010A0AFA09FAAAF1010A0AEA020A1F
:100AE0000AFA0CFA4FF0010B0BFA0CFBABF1010BFD
:100AF0000BEA030B4AEA0B042146404601F0C0FB17
:100B0000BDE8F09F00BF00F00702064B19684FF6E2
:100B1000FF031940044B0B4343EA0221014B1960C8
:100B200000BF70470CED00E00000FA0538B5002466
:100B300000BF002000901D48006840F080501B4915
:100B400008600846006800F08050009000BF00BFB9
:100B5000012017490864FFF709FF044607E0FFF783
:100B600005FF001BB0F57A7F01D9032038BD11487D
:100B7000406800F48030B0F5803FF0D101200C498E
:100B80004864FFF7F3FE044607E0FFF7EFFE001BA3
:100B9000B0F57A7F01D90320E8E70648406800F401
:100BA0000030B0F5003FF0D10020DFE740380240D0
:100BB00000000E420070004070B504460D460CB9AE
:100BC000012070BD5848006800F00F00A84209D20B
:100BD00055490D700846006800F00F00A84201D08A
:100BE0000120EEE7207800F0020002281DD12078D5
:100BF00000F00400042805D14C48006840F4E0509F
:100C00004A490860207800F00800082805D14748C4
:100C1000006840F46040454908604448006820F09E
:100C2000F000A168084341490860207800F0010005
:100C3000A8B36068012807D13C4808380068C0F3B1
:100C40004040B8B90120BCE76068022802D0606863
:100C5000032807D1354808380068C0F3406048B918
:100C60000120AEE7314808380068C0F3400008B9F9
:100C70000120A6E72D48006820F0030061680843C2
:100C80002A490860FFF772FE064609E0FFF76EFE8C
:100C9000801B41F28831884202D9032091E707E0A6
:100CA0002248006800F00C006168B0EB810FEDD1C4
:100CB0001D48006800F00F00A84209D91A490D70BC
:100CC0000846006800F00F00A84201D0012078E734
:100CD000207800F00400042807D11448006820F4AC
:100CE000E050E168084311490860207800F00800EE
:100CF000082808D10D48006820F46040216940EAC6
:100D0000C1000A49086000F03FF808490968C1F3CA
:100D10000311074A515CC84006490860064800684C
:100D2000FFF754FE00204CE7003C02400838024028
:100D3000222C000820000020180000200148006834
:100D4000704700002000002000B5FFF7F7FF0449BE
:100D50000968C1F38221034A515CC84000BD00000C
:100D600008380240322C000800B5FFF7E7FF0449BD
:100D70000968C1F34231034A515CC84000BD00001C
:100D800008380240322C00082DE9F04700240025E5
:100D90000026A1462548006800F00C0020B1042878
:100DA00005D008283AD105E0DFF8849039E0DFF873
:100DB000849036E01D48001F006800F03F041B4887
:100DC000001F006800F4800078B11A481749091F15
:100DD0000968C1F38811A0FB017001462246002377
:100DE0003846FFF753FA05460EE011480F49091F30
:100DF0000968C1F38811A0FB017001462246002357
:100E00003846FFF743FA05460848001F0068C0F35C
:100E10000140401C4600B5FBF6F902E0DFF81090F7
:100E200000BF00BF4846BDE8F08700000838024018
:100E30000024F40040787D01F8B504460CB9012087
:100E4000F8BD207800F00100002874D0F94800684F
:100E500000F00C0004280DD0F648006800F00C00EB
:100E6000082813D1F348001F006800F48000B0F593
:100E7000800F0BD1EF4808380068C0F340400028CD
:100E800059D06068002856D10120D9E700BF6068BA
:100E9000B0F5803F08D1E7480838006840F480305A
:100EA000E449083908601EE06068B0F5A02F0DD154
:100EB000E0480838006840F48020DE4908390860BE
:100EC0000846006840F4803008600CE0D9480838D3
:100ED000006820F48030D749083908600846006867
:100EE00020F48020086000BF606890B1FFF73EFDED
:100EF000054606E0FFF73AFD401B642801D90320B0
:100F00009EE7CC4808380068C0F340400028F1D084
:100F100011E0FFF72BFD054606E0FFF727FD401B1C
:100F2000642801D903208BE7C24808380068C0F361
:100F300040400028F1D1207800F0020002285FD163
:100F4000BC48006800F00C0058B1BA48006800F0D6
:100F50000C0008281CD1B748001F006800F480006E
:100F6000B0B9B44808380068C0F3400020B1E06868
:100F7000012801D0012063E7AE480838006820F05E
:100F8000F800216940EAC100AA490839086037E041
:100F9000E06800B30120A8490860FFF7E7FC0546B8
:100FA00006E0FFF7E3FC401B022801D9032047E7D6
:100FB000A04808380068C0F340000028F1D09D48E0
:100FC0000838006820F0F800216940EAC10099491A
:100FD0000839086014E0002097490860FFF7C6FC54
:100FE000054606E0FFF7C2FC401B022801D903209A
:100FF00026E7904808380068C0F340000028F1D187
:10100000207800F0080008282CD16069A8B10120E0
:101010008A490860FFF7AAFC054606E0FFF7A6FC30
:10102000401B022801D903200AE782486C3000687F
:10103000C0F340000028F1D014E000207F49086090
:10104000FFF794FC054606E0FFF790FC401B0228E2
:1010500001D90320F4E677486C300068C0F3400003
:101060000028F1D1207800F00400042870D1002776
:1010700070483830006800F0805090B900BF002000
:1010800000906C483830006840F080506949383131
:1010900008600846006800F08050009000BF00BF64
:1010A00001276748006800F48070B0B964480068A0
:1010B00040F4807062490860FFF758FC054606E07E
:1010C000FFF754FC401B022801D90320B8E65C4816
:1010D000006800F480700028F2D000BFA0680128EA
:1010E00008D154486830006840F001005149683127
:1010F00008601DE0A06805280DD14E4868300068E2
:1011000040F004004B49683108600846006840F030
:10111000010008600CE047486830006820F00100DA
:101120004449683108600846006820F004000860FF
:1011300000BFA068A8B1FFF719FC054609E0FFF75A
:1011400015FC401B41F28831884202D9032077E622
:1011500026E0384868300068C0F340000028EED030
:1011600013E0FFF703FC054608E0FFF7FFFB401B19
:1011700041F28831884201D9032061E62D48683068
:101180000068C0F340000028EFD1012F07D12948A3
:101190003830006820F0805026493831086000BFA0
:1011A000A069002845D02348006800F00C000828FA
:1011B0005DD0A069022845D100201F490866FFF7CD
:1011C000D5FB054606E0FFF7D1FB401B022801D9FD
:1011D000032035E6174808380068C0F3406000284F
:1011E000F1D1D4E907010843616A40EA8111012283
:1011F000A06AC2EB500041EA00412C20005D41EAA8
:1012000000600C49091F086001200B490866FFF7C0
:10121000ADFB054606E0FFF7A9FB401B022801D9FC
:1012200003200DE6034808380068C0F3406000283A
:10123000F1D049E00838024000004742800E4742A2
:1012400000700040002021490866FFF78FFB05462B
:1012500006E0FFF78BFB401B022801D90320EFE5D6
:101260001B480068C0F340600028F2D12CE0A06960
:10127000012800D1E4E51648001D0668A069012890
:1012800020D006F48001E06981421BD106F03F01C5
:10129000206A814216D147F6C0703040616AB0EBD7
:1012A000811F0FD106F440310122A06AC2EB500029
:1012B000B1EB004F06D106F070612C20005DB1EB60
:1012C000006F01D00120BBE50020B9E500004742D6
:1012D0000038024070B504462546681EB0F1807F94
:1012E00001D301200FE0681E4FF0E02148610F217B
:1012F0004FF0FF3000F0C4FF00204FF0E021886184
:1013000007200861002070BD704770472DE9F84F35
:101310000446206805682068C668206847694FF061
:101320000009CA4605F00F09B9F1000F0AD105F00E
:10133000200038B106F0200020B1204600F04EFD1C
:10134000BDE8F88FB9F1000F7CD007F0010018B9A3
:1013500006F49070002875D005F0010030B106F455
:10136000807018B1206C40F00100206405F004008A
:1013700030B107F0010018B1206C40F00200206489
:1013800005F0020030B107F0010018B1206C40F008
:101390000400206405F0080048B106F0200010B9F0
:1013A00007F0010018B1206C40F008002064206CA8
:1013B000002846D005F0200028B106F0200010B12A
:1013C000204600F00BFD20684069C0F3801A206CB5
:1013D00000F0080010B9BAF1000F2DD0204600F03F
:1013E000B7FC2068406900F04000402820D100BFD1
:1013F00000BF2168143151E8001F21F0400021682E
:10140000143141E80002002AF3D100BFA06B50B1B3
:101410007548A16B0865A06BFFF786F988B1A06BD2
:10142000016D88470DE02046FFF76FFF09E009E0F6
:101430002046FFF76AFF04E02046FFF766FF002022
:1014400020647DE7206B012876D105F0100000288C
:1014500072D006F010000028FAD000BF00200090E3
:1014600020680068009020684068009000BF00BFBE
:101470002068406900F0400040285ED1A06B006801
:1014800040681FFA80F8B8F1000F54D0A08D404595
:1014900051DDA4F82E80A06BC069B0F5807F43D0E9
:1014A00000BF00BF21680C3151E8001F21F480709B
:1014B00021680C3141E80002002AF3D100BF00BFCF
:1014C00000BF2168143151E8001F21F0010021689C
:1014D000143141E80002002AF3D100BF00BF00BF71
:1014E0002168143151E8001F21F0400021681431B7
:1014F00041E80002002AF3D100BF202084F83E001A
:101500000020206300BF00BF21680C3151E8001F9C
:1015100021F0100021680C3141E80002002AF3D1CB
:1015200000BFA06BFFF7AAF8A08DE28D801A81B2F0
:101530002046FFF7E9FE03E740E0A08DE18D401A69
:101540001FFA80F8E08DC0B3B8F1000F35D000BFAE
:1015500000BF21680C3151E8001F21F49070216810
:101560000C3141E80002002AF3D100BF00BF00BFE8
:101570002168143151E8001F21F001002168143165
:1015800041E80002002AF3D100BF202084F83E0089
:101590000020206300BF00BF21680C3151E8001F0C
:1015A00021F0100021680C3141E80002002AF3D13B
:1015B00000BF41462046FFF7A7FEC1E605F08000C8
:1015C00030B106F0800018B1204600F0BEFDB7E64D
:1015D00005F0400030B106F0400018B1204600F0A0
:1015E000EDFBADE600BFABE63D1D000810B50446BF
:1015F0000CB9012010BDA06900B100E000BF94F853
:101600003D0028B9002084F83C00204600F028F86E
:10161000242084F83D002068C06820F40050216830
:10162000C860204600F056FC2068006920F4904015
:10163000216808612068406920F02A00216848611B
:101640002068C06840F400502168C8600020206411
:10165000202084F83D0084F83E000020CAE7000006
:1016600010B586B00446142101A8FEF7A8FE5F4914
:101670002068884239D100BF002000905C48006893
:1016800040F010005A4908600846006800F0100059
:10169000009000BF00BF00BF0020009054481438E5
:1016A000006840F00100524914390860084600689B
:1016B00000F00100009000BF00BF4FF4C060019037
:1016C0000220029000200390032004900720059040
:1016D00001A94848FFF73CF8012211462520FFF7F1
:1016E000D3F92520FFF7C0F97DE0434920688842FF
:1016F0003AD100BF002000903D48001F006840F430
:1017000000303B49091F08600846006800F40030BB
:10171000009000BF00BF00BF002000903448143884
:10172000006840F00100324914390860084600683A
:1017300000F00100009000BF00BF0C2001900220CB
:10174000029000200390032004900720059001A937
:101750002848FEF7FDFF022201212620FFF794F919
:101760002620FFF781F93EE02449206888423AD1DB
:1017700000BF002000901E48001F006840F4802039
:101780001B49091F08600846006800F4802000908B
:1017900000BF00BF00BF002000901548143800684B
:1017A00040F002001249143908600846006800F051
:1017B0000200009000BF00BF4FF440600190022083
:1017C000029000200390032004900720059001A9B7
:1017D0000B48FEF7BDFF002201212720FFF754F937
:1017E0002720FFF741F906B010BD000000100140AE
:1017F00044380240000002400044004000480040DD
:101800000004024070B504460D46164694F83E00AA
:10181000202816D105B10EB9012070BD00BF94F883
:101820003C00012801D10220F7E7012084F83C00A8
:1018300000BF0020206332462946204600F060FCAD
:10184000EBE70220E9E7000010B5044616492068DE
:1018500088420AD1002015490870FEF713FE0122C4
:1018600013491448FFF7CEFF1CE013492068884253
:101870000AD101200D490870FEF704FE01220C492F
:101880000E48FFF7BFFF0DE00D492068884209D1DF
:10189000022006490870FEF7F5FD012204490948B7
:1018A000FFF7B0FF10BD0000001001400400002051
:1018B00012000020EC000020004400403001002015
:1018C00000480040740100202DE9F84F04460E4600
:1018D000174699464FF0000A94F83D0020285AD147
:1018E00006B117B90120BDE8F88F00BF94F83C009D
:1018F000012801D10220F6E7012084F83C0000BF56
:1019000000202064212084F83D00FFF72FF8824654
:10191000A784E784A068B0F5805F04D1206910B97E
:101920000025B04602E035464FF0000800BF002019
:1019300084F83C0000BF1BE0534600228021204673
:10194000CDF8009000F031FC08B10320CBE745B999
:10195000B8F80000C0F308002168486008F10208E8
:1019600003E02878216848606D1CE08C401EE0840C
:10197000E08C0028E0D15346002240212046CDF8DB
:10198000009000F012FC08B10320ACE7202084F89E
:101990003D000020A7E70220A5E7704700BFFEE753
:1019A00000B587B0142102A8FEF709FD00BF002092
:1019B00001906F48006840F010006D4908600846CB
:1019C000006800F01000019000BF00BF00BF0020C1
:1019D00001900846006840F004000860084600686E
:1019E00000F00400019000BF00BF00BF0020019084
:1019F0000846006840F0200008600846006800F0D3
:101A00002000019000BF00BF00BF002001900846E9
:101A1000006840F0800008600846006800F0800020
:101A2000019000BF00BF00BF002001900846006881
:101A300040F0010008600846006800F001000190D5
:101A400000BF00BF00BF002001900846006840F0C2
:101A5000020008600846006800F00200019000BF24
:101A600000BF00BF002001900846006840F0400021
:101A700008600846006800F04000019000BF00BF09
:101A8000002242F6BC613B48FEF76AFF002247F69F
:101A9000E6613948FEF764FF012248F20801364842
:101AA000FEF75EFF00223F213448FEF759FF002277
:101AB00073213348FEF754FF00220F213148FEF70F
:101AC0004FFF002203213048FEF74AFF01224FF466
:101AD00088512848FEF744FF0122D1032A48FEF727
:101AE0003FFF43F6BC700290012003900020049059
:101AF000059002A91F48FEF72BFE4FF6EE600290FC
:101B00000120039000200490059002A91A48FEF7D6
:101B10001FFE3F20029001200390002004900590BA
:101B200002A91648FEF714FE7320029001200390CC
:101B300000200490059002A91148FEF709FE0F202D
:101B400002900120039000200490059002A90D4806
:101B5000FEF7FEFD48F203000290012003900020F2
:101B60000490059002A90848FEF7F2FD07B000BDF9
:101B700030380240001002400014024000080240C9
:101B800000000240000402400018024010B50D4859
:101B90000D4908604FF4E130486000210A48816037
:101BA000C16001610C21416100218161C161FFF7C8
:101BB0001DFD08B1FEF74DFD012204490248FFF763
:101BC00021FE10BD00100140EC000020120000209A
:101BD00010B50D480D4908604FF4E1304860002110
:101BE0000A488160C16001610C214161002181616D
:101BF000C161FFF7FBFC08B1FEF72BFD0122044990
:101C00000248FFF7FFFD10BD0044004030010020F6
:101C10001200002010B50D480D4908604FF4E13066
:101C2000486000210A488160C16001610C21416166
:101C300000218161C161FFF7D9FC08B1FEF709FD00
:101C4000012204490248FFF7DDFD10BD00480040B5
:101C5000740100201200002000BFFEE700BFFEE775
:101C60007047704710B5FEF787FE10BD00B593B002
:101C7000302107A8FEF7A3FB142102A8FEF79FFB63
:101C800000BF002001902648006840F080502449A1
:101C900008600846006800F08050019000BF00BF57
:101CA00000BF002001901F48006840F440401D49DB
:101CB00008600846006800F44040019000BF00BF83
:101CC000012007900004089002200D9041050E911C
:101CD0000F210F91D821109102211191042112910D
:101CE00007A8FFF7A9F808B1FEF7B3FCFEF71EFF3F
:101CF00008B1FEF7AEFC0F200290022003900020F6
:101D000004904FF4A05005904FF4805006900521A8
:101D100002A8FEF751FF08B1FEF79BFC13B000BD0F
:101D200040380240007000400348006840F47000F2
:101D3000014908607047000088ED00E070B5054675
:101D4000AC6B0020E085E0842046FFF7DEFA70BD32
:101D500000BF00BF02680C3252E8002F22F49071DD
:101D600002680C3242E80013002BF3D100BF00BF21
:101D700000BF0268143252E8002F22F0010102680D
:101D8000143242E80013002BF3D100BF016B01298C
:101D90000ED100BF00BF02680C3252E8002F22F0C3
:101DA000100102680C3242E80013002BF3D100BF8F
:101DB000202180F83E1000210163704710B50446D1
:101DC0002068C06820F040002168C860202084F8A6
:101DD0003D002046FFF7E1FD002010BDF8B50446A8
:101DE00094F83E00222873D1A068B0F5805F0CD132
:101DF000206950B90025A66A20684068C0F3080031
:101E00003080A06A801CA06215E0A56A0026A06848
:101E1000B0F5805F03D0A06828B9206918B92068A0
:101E20004068287004E02068406800F07F00287057
:101E3000A06A401CA062E08D401E80B2E0850028B0
:101E400044D12068C06820F020002168C860206864
:101E5000C06820F480702168C8602068406920F064
:101E6000010021684861202084F83E00206B012891
:101E700026D10020206300BF00BF21680C3151E84B
:101E8000001F21F0100021680C3141E80002002AF7
:101E9000F3D100BF2068006800F0100010280AD1BC
:101EA00000BF002000902068006800902068406813
:101EB000009000BF00BFA18D2046FFF725FA02E089
:101EC0002046FFF7C1FC0020F8BD01E00020FBE741
:101ED0000220F9E72DE9F84F04462068006920F454
:101EE0004050E1680843216808612169A0680843FF
:101EF00061690843E169084300902068C06849F2BD
:101F00000C618843009908432168C86020684069D3
:101F100020F44070A169084321684861764920682F
:101F2000884203D075492068884203D1FEF71CFF20
:101F3000814602E0FEF708FF8146E069B0F5004FF8
:101F40006CD102206168A0FB015003461920A9FB57
:101F5000007001462A463846FEF798F96421B0FB26
:101F6000F1F04FEA001A02206168A0FB01510B4614
:101F70001920A9FB00712A463846FEF787F98346E7
:101F800002206168A0FB015003461920A9FB0071E3
:101F90002A463846FEF77AF96421B0FBF1F000EBEF
:101FA000C00101EB0010ABEB8000322101EBC0005F
:101FB0006421B0FBF1F000F0F8000AEB400A0220C7
:101FC0006168A0FB015003461920A9FB007001467F
:101FD0002A463846FEF75AF9834602206168A0FB7C
:101FE000015003461920A9FB00712A463846FEF726
:101FF0004DF96421B0FBF1F000EBC00101EB0010E2
:10200000ABEB8000322101EBC0006421B0FBF1F0AA
:1020100000F007005044216888606AE0042061688D
:10202000A0FB015003461920A9FB007001462A4677
:102030003846FEF72BF9824604206168A0FB015068
:1020400003461920A9FB007001462A463846FEF7D0
:102050001DF96421B0FBF1F000EBC00101EB0010B1
:10206000AAEB8000322101EB00106421B0FBF1F0FB
:1020700000F0F00A04206168A0FB017003461920FB
:10208000A9FB00513A462846FEF700F96421B0FB4F
:10209000F1F00AEB001A04206168A0FB01510B4625
:1020A0001920A9FB00712A463846FEF7EFF883464F
:1020B00004206168A0FB015003461920A9FB0070B1
:1020C00001462A463846FEF7E1F86421B0FBF1F0FC
:1020D00000EBC00101EB0010ABEB8000322101EB03
:1020E00000106421B0FBF1F000F00F0050442168B3
:1020F0008860BDE8F88F0000001001400014014026
:1021000010B5034699629A85DA850020186422206A
:1021100083F83E0000BF002083F83C0000BF186930
:1021200028B11868C06840F480701C68E0601868C6
:10213000406940F001001C6860611868C06840F0A8
:1021400020001C68E060002010BD014691F83D00B1
:10215000212828D18868B0F5805F0BD1086948B97B
:102160000A6A1088C0F308000B685860086A801C6F
:10217000086205E00B6A581C086218780B68586002
:10218000C88C401E80B2C88458B90868C06820F066
:1021900080000B68D8600868C06840F040000B6899
:1021A000D860002070470220FCE72DE9F04104468A
:1021B0000D4617469846069E34E0701C88B32EB133
:1021C000FEF7D4FBA0EB0800B0422BD900BF00BF44
:1021D00021680C3151E8001F21F4D07021680C31C6
:1021E00041E80002002AF3D100BF00BF00BF216810
:1021F000143151E8001F21F001002168143141E839
:102200000002002AF3D100BF202084F83D0084F8AA
:102210003E0000BF002084F83C0000BF0320BDE862
:10222000F081FFE7206800682840A84201D1012022
:1022300000E00020B842C0D00020F0E710B502480E
:10224000FFF764F810BD0000EC00002010B5024854
:10225000FFF75CF810BD00003001002010B5024807
:10226000FFF754F810BD00007401002000BFFEE726
:1022700002480068C0F30220704700000CED00E047
:1022800010B5002804DB0A07130E054A135406E0B4
:102290000A07140E034A00F00F031B1FD45410BD8D
:1022A00000E400E018ED00E000250024FEF770FBDC
:1022B000FFF7DCFCFFF774FBFFF768FCFFF788FC17
:1022C000FFF7A8FCFDE3FC48008800F4004000286C
:1022D00073D0FA480068C06820F00400F749096824
:1022E000C860F7480068C06820F00400F449096835
:1022F000C860F4480068C06820F00400F14909682B
:10230000C860F148007800BBEB480088C0F30B02BE
:102310004FF47A73ED49E948FFF7D6FA00BFE74872
:1023200000680068C0F380100028F8D064230D22F4
:10233000E749E348FFF7C8FA00BFE14800680068D2
:10234000C0F380100028F8D02CE0DF480078012886
:1023500012D1D9480088C0F30B024FF47A73DB49DD
:10236000D648FFF7B1FA00BFD44800680068C0F350
:1023700080100028F8D015E0D3480078022811D149
:10238000CD480088C0F30B024FF47A73CF49CD4893
:10239000FFF79AFA00BFCB4800680068C0F38010CE
:1023A0000028F8D0C9480078012807D002285DD05D
:1023B00003287CD004287BD131E2EFE3C348807846
:1023C000C0F340020121C348FEF746F9BF488078B8
:1023D00000F001024FF40041BF48FEF73DF9BB4851
:1023E000C078C0F340124FF48041BB48FEF734F987
:1023F000B648C078C0F300124FF40051B648FEF75B
:102400002BF9B248C078C0F3C0024FF48051B248F3
:10241000FEF722F9AD48C078C0F380024FF40061A6
:10242000AD48FEF719F9A948C078C0F3400204216D
:10243000AA48FEF711F9A548C07800F00102022170
:10244000A648FEF709F9A1480079C0F340024FF40D
:102450000051A348FEF700F99C48007900F0010202
:102460004FF480519E48FEF7F7F899E3974880783B
:10247000C0F340024FF400719948FEF7EDF893481D
:10248000807800F001024FF480719548FEF7E4F87F
:102490008E48C078C0F3401280219148FEF7DCF8E6
:1024A0008A48C078C0F3001202218A4801E034E073
:1024B00075E3FEF7D1F88548C078C0F3C00201216A
:1024C0008848FEF7C9F88148C078C0F38002082127
:1024D0008548FEF7C1F87D48C078C0F3400204216A
:1024E0008148FEF7B9F87948C07800F0010202216E
:1024F0007D48FEF7B1F875480079C0F34002082125
:102500007648FEF7A9F87148007900F001024FF40F
:1025100000417048FEF7A0F842E3002579E16B49DD
:10252000A81C085C1F286ED2DFE800F06D10161C96
:1025300023293036414C57626E79848F959BB0EBDE
:10254000E9E8E7E6E5E4E3E2E1E0C5000022012195
:102550006548FEF705FA59E1012211466248FEF787
:10256000FFF953E100224FF480615B48FEF7F8F970
:102570004CE1012291025848FEF7F2F946E10022AF
:102580004FF400715448FEF7EBF93FE1012251028C
:102590005148FEF7E5F939E1002210215248FEF7D3
:1025A000DFF9002201214D48FEF7DAF92EE1002281
:1025B00010214D48FEF7D4F9012211464748FEF795
:1025C000CFF923E1012210214748FEF7C9F9002283
:1025D00020214548FEF7C4F918E1012210214248A4
:1025E000FEF7BEF9012220213F48FEF7B9F90DE1BF
:1025F000002210213B48FEF7B3F900224021394860
:10260000FEF7AEF902E100E1002210213548FEF7A5
:10261000A7F9012240213348FEF7A2F9F6E0012292
:1026200010213048FEF79CF9002220212D48FEF7AA
:1026300097F9EBE0012210212A48FEF791F90122D7
:1026400020212848FEF78CF9E0E0002202212548ED
:10265000FEF786F9DAE0012202212248FEF780F92E
:10266000D4E0012208211C48FEF77AF90022042157
:102670001948FEF775F9002202211748FEF770F994
:10268000002280211448FEF76BF9BFE001220821E7
:102690001148FEF765F9002204210F48FEF760F9A2
:1026A000002202210C48FEF75BF9012280210A4832
:1026B000FEF756F9AAE0A2E000000020EC0000209E
:1026C00030010020740100200400002024000020BC
:1026D00005000020001802400014024000040240DF
:1026E00000100240000002400008024081E07AE051
:1026F00073E06CE065E05EE057E041E02BE015E060
:10270000FFE700220821FA48FEF72AF901220421F6
:10271000F748FEF725F900220221F548FEF720F9D7
:1027200000224021F248FEF71BF96FE00022082149
:10273000EF48FEF715F901220421ED48FEF710F9E4
:1027400000220221EA48FEF70BF901224021E84865
:10275000FEF706F95AE000220821E548FEF700F9E5
:1027600000220421E248FEF7FBF801220221E048A2
:10277000FEF7F6F800222021DD48FEF7F1F845E0EB
:1027800000220821DA48FEF7EBF800220421D8489D
:10279000FEF7E6F801220221D548FEF7E1F8012212
:1027A0002021D348FEF7DCF830E000222021D14878
:1027B000FEF7D6F82AE001222021CE48FEF7D0F815
:1027C00024E000221021CB48FEF7CAF81EE00122C7
:1027D0001021C848FEF7C4F818E000220821C548B7
:1027E000FEF7BEF812E001220821C248FEF7B8F851
:1027F0000CE000220421BF48FEF7B2F806E00122F7
:102800000421BC48FEF7ACF800E000BF00BF681C24
:10281000C5B2B9484078A8423FF781AEC0E1B6489A
:1028200080781E2841DC00220121B448FEF798F888
:102830000122D103AE48FEF793F800224FF4005175
:10284000AC48FEF78DF801221103AA48FEF788F87C
:10285000A94880784006040EC4F340124FF480412A
:10286000A348FDF7F9FEC4F300124FF40051A0484D
:10287000FDF7F2FEC4F3C0024FF480519C48FDF70F
:10288000EBFEC4F380024FF400619948FDF7E4FECB
:10289000C4F3400204219A48FDF7DEFE04F0010271
:1028A00002219748FDF7D8FE96E0934880781E28CD
:1028B00047DD914880783C2843DC012211468F484F
:1028C000FEF74EF800224FF400418948FEF748F821
:1028D00000224FF400518748FEF742F8012211030D
:1028E0008448FEF73DF8844880781E384006040E80
:1028F000C4F340124FF480417D48FDF7ADFEC4F3B0
:1029000000124FF400517A48FDF7A6FEC4F3C0024E
:102910004FF480517648FDF79FFEC4F380024FF4D8
:1029200000617348FDF798FEC4F340020421744827
:10293000FDF792FE04F0010202217148FDF78CFEC2
:102940004AE06D4880783C2846DD6B4880785A28FC
:1029500042DC012211466948FEF702F800224FF4DA
:1029600000416348FDF7FCFF012251036148FDF778
:10297000F7FF00224FF480515E48FDF7F1FF5E48FB
:1029800080783C384006040EC4F340124FF4804176
:102990005748FDF761FEC4F300124FF4005154484C
:1029A000FDF75AFEC4F3C0024FF480515048FDF7C2
:1029B00053FEC4F380024FF400614D48FDF74CFE16
:1029C000C4F3400204214E48FDF746FE04F0010224
:1029D00002214B48FDF740FE474880791E283DDC28
:1029E00000224FF400714348FDF7BAFF01221102A3
:1029F0004048FDF7B5FF002208214148FDF7B0FF30
:102A00000122D1033D48FDF7ABFF3B4880794006EA
:102A1000040EC4F3401280213648FDF71DFEC4F3B6
:102A2000001202213548FDF717FEC4F3C002012150
:102A30003448FDF711FEC4F3800208213248FDF747
:102A40000BFEC4F3400204212F48FDF705FE04F0FD
:102A5000010202212C48FDF7FFFD9EE02648807907
:102A60001E2853DD244880793C284FDC0122510286
:102A70002048FDF775FF00224FF480711D48FDF7D7
:102A80006FFF002208211E48FDF76AFF0122D103D3
:102A90001A48FDF765FF184880791E384006040E75
:102AA000C4F3401280211348FDF7D6FDC4F3001291
:102AB00002211248FDF7D0FDC4F3C00201211148E4
:102AC00000E092E0FDF7C8FDC4F3800208210E4843
:102AD000FDF7C2FDC4F3400204210B48FDF7BCFD25
:102AE00004F0010202210848FDF7B6FD55E00000A0
:102AF0000014024000100240240000200018024090
:102B0000000402400000024000080240384880797A
:102B10003C2842DD364880795A283EDC01225102A9
:102B20003448FDF71DFF00224FF480713148FDF756
:102B300017FF012208213048FDF712FF00224FF451
:102B400000412E48FDF70CFF294880793C384006AB
:102B5000040EC4F3401280212648FDF77DFDC4F326
:102B6000001202212548FDF777FDC4F3C0020121C0
:102B70002348FDF771FDC4F3800208212148FDF7C9
:102B80006BFDC4F3400204211E48FDF765FD04F00F
:102B9000010202211B48FDF75FFD01E024E000BFB8
:102BA00000BF19480088C0F30B011148FDF7E5FB91
:102BB00000201549088015480068C06840F00400EE
:102BC00012490968C86012480068C06840F00400F3
:102BD0000F490968C8600F480068C06840F00400E9
:102BE0000C490968C86000E030BFFFF76CBB00000B
:102BF000240000200010024000040240001802409F
:102C0000000002400008024000000020EC0000200C
:102C100030010020740100204FF04070E1EE100AF6
:102C200070470000000000000000010203040607D6
:102C30000809000000000102030400005C2C0008E9
:102C40000000002024000000E8010008802C00089B
:102C500024000020F4070000040200080000000027
:102C60000070616765206C6F63616CFFFFFF00009F
:102C70000000000010000000010000000024F4002B
:04000005080001AD41
:00000001FF
